{
  "_format": "hh-sol-artifact-1",
  "contractName": "TodoContract",
  "sourceName": "contracts/TodoContract.sol",
  "abi": [
    {
      "inputs": [],
      "stateMutability": "payable",
      "type": "constructor"
    },
    {
      "anonymous": false,
      "inputs": [
        {
          "indexed": false,
          "internalType": "uint256",
          "name": "todoID",
          "type": "uint256"
        },
        {
          "indexed": true,
          "internalType": "address",
          "name": "from",
          "type": "address"
        },
        {
          "indexed": false,
          "internalType": "string",
          "name": "message",
          "type": "string"
        },
        {
          "indexed": false,
          "internalType": "uint256",
          "name": "timestamp",
          "type": "uint256"
        }
      ],
      "name": "NewTodo",
      "type": "event"
    },
    {
      "anonymous": false,
      "inputs": [
        {
          "indexed": false,
          "internalType": "uint256",
          "name": "todoID",
          "type": "uint256"
        },
        {
          "indexed": false,
          "internalType": "address",
          "name": "receiver",
          "type": "address"
        },
        {
          "indexed": false,
          "internalType": "string",
          "name": "message",
          "type": "string"
        },
        {
          "indexed": false,
          "internalType": "uint256",
          "name": "timestamp",
          "type": "uint256"
        }
      ],
      "name": "SendMoneyToContract",
      "type": "event"
    },
    {
      "inputs": [],
      "name": "getBalance",
      "outputs": [
        {
          "internalType": "uint256",
          "name": "",
          "type": "uint256"
        }
      ],
      "stateMutability": "view",
      "type": "function"
    },
    {
      "inputs": [],
      "name": "getTodoList",
      "outputs": [
        {
          "components": [
            {
              "internalType": "uint256",
              "name": "id",
              "type": "uint256"
            },
            {
              "internalType": "address",
              "name": "author",
              "type": "address"
            },
            {
              "internalType": "string",
              "name": "message",
              "type": "string"
            },
            {
              "internalType": "uint256",
              "name": "timestamp",
              "type": "uint256"
            }
          ],
          "internalType": "struct TodoContract.Todo[]",
          "name": "",
          "type": "tuple[]"
        }
      ],
      "stateMutability": "view",
      "type": "function"
    },
    {
      "inputs": [],
      "name": "owner",
      "outputs": [
        {
          "internalType": "address payable",
          "name": "",
          "type": "address"
        }
      ],
      "stateMutability": "view",
      "type": "function"
    },
    {
      "inputs": [
        {
          "internalType": "string",
          "name": "_message",
          "type": "string"
        }
      ],
      "name": "published",
      "outputs": [],
      "stateMutability": "payable",
      "type": "function"
    },
    {
      "inputs": [],
      "name": "todoID",
      "outputs": [
        {
          "internalType": "uint256",
          "name": "",
          "type": "uint256"
        }
      ],
      "stateMutability": "view",
      "type": "function"
    },
    {
      "inputs": [
        {
          "internalType": "uint256",
          "name": "",
          "type": "uint256"
        }
      ],
      "name": "todoList",
      "outputs": [
        {
          "internalType": "uint256",
          "name": "id",
          "type": "uint256"
        },
        {
          "internalType": "address",
          "name": "author",
          "type": "address"
        },
        {
          "internalType": "string",
          "name": "message",
          "type": "string"
        },
        {
          "internalType": "uint256",
          "name": "timestamp",
          "type": "uint256"
        }
      ],
      "stateMutability": "view",
      "type": "function"
    },
    {
      "inputs": [],
      "name": "withdraw",
      "outputs": [],
      "stateMutability": "payable",
      "type": "function"
    },
    {
      "stateMutability": "payable",
      "type": "receive"
    }
  ],
  "bytecode": "0x608060405233600260006101000a81548173ffffffffffffffffffffffffffffffffffffffff021916908373ffffffffffffffffffffffffffffffffffffffff1602179055506111d8806100546000396000f3fe6080604052600436106100745760003560e01c80634c56216b1161004e5780634c56216b146100e057806358c2d4691461010b5780638da5cb5b1461014b578063a52abdd2146101765761007b565b80630c7a16be1461008057806312065fe0146100ab5780633ccfd60b146100d65761007b565b3661007b57005b600080fd5b34801561008c57600080fd5b50610095610192565b6040516100a29190610981565b60405180910390f35b3480156100b757600080fd5b506100c06102ed565b6040516100cd91906109b2565b60405180910390f35b6100de6102f5565b005b3480156100ec57600080fd5b506100f56103d4565b60405161010291906109b2565b60405180910390f35b34801561011757600080fd5b50610132600480360381019061012d9190610a0d565b6103da565b6040516101429493929190610a93565b60405180910390f35b34801561015757600080fd5b506101606104c2565b60405161016d9190610b00565b60405180910390f35b610190600480360381019061018b9190610c50565b6104e8565b005b60606001805480602002602001604051908101604052809291908181526020016000905b828210156102e45783829060005260206000209060040201604051806080016040529081600082015481526020016001820160009054906101000a900473ffffffffffffffffffffffffffffffffffffffff1673ffffffffffffffffffffffffffffffffffffffff1673ffffffffffffffffffffffffffffffffffffffff16815260200160028201805461024990610cc8565b80601f016020809104026020016040519081016040528092919081815260200182805461027590610cc8565b80156102c25780601f10610297576101008083540402835291602001916102c2565b820191906000526020600020905b8154815290600101906020018083116102a557829003601f168201915b50505050508152602001600382015481525050815260200190600101906101b6565b50505050905090565b600047905090565b600260009054906101000a900473ffffffffffffffffffffffffffffffffffffffff1673ffffffffffffffffffffffffffffffffffffffff163373ffffffffffffffffffffffffffffffffffffffff1614610385576040517f08c379a000000000000000000000000000000000000000000000000000000000815260040161037c90610d45565b60405180910390fd5b60004790503373ffffffffffffffffffffffffffffffffffffffff166108fc829081150290604051600060405180830381858888f193505050501580156103d0573d6000803e3d6000fd5b5050565b60005481565b600181815481106103ea57600080fd5b90600052602060002090600402016000915090508060000154908060010160009054906101000a900473ffffffffffffffffffffffffffffffffffffffff169080600201805461043990610cc8565b80601f016020809104026020016040519081016040528092919081815260200182805461046590610cc8565b80156104b25780601f10610487576101008083540402835291602001916104b2565b820191906000526020600020905b81548152906001019060200180831161049557829003601f168201915b5050505050908060030154905084565b600260009054906101000a900473ffffffffffffffffffffffffffffffffffffffff1681565b60016000808282546104fa9190610d94565b925050819055506000604051806080016040528060005481526020013373ffffffffffffffffffffffffffffffffffffffff16815260200183815260200142815250905060018190806001815401808255809150506001900390600052602060002090600402016000909190919091506000820151816000015560208201518160010160006101000a81548173ffffffffffffffffffffffffffffffffffffffff021916908373ffffffffffffffffffffffffffffffffffffffff16021790555060408201518160020190816105d09190610f74565b506060820151816003015550503373ffffffffffffffffffffffffffffffffffffffff167fc6f9fa5ecd463e86c64c047ec01b0a5de331f926aa411aebdeef3510bd1dc352600054844260405161062993929190611046565b60405180910390a2600067016345785d8a0000905080341015610681576040517f08c379a0000000000000000000000000000000000000000000000000000000008152600401610678906110d0565b60405180910390fd5b60003073ffffffffffffffffffffffffffffffffffffffff16826040516106a790611121565b60006040518083038185875af1925050503d80600081146106e4576040519150601f19603f3d011682016040523d82523d6000602084013e6106e9565b606091505b505090508061072d576040517f08c379a000000000000000000000000000000000000000000000000000000000815260040161072490611182565b60405180910390fd5b7f7c4dbf8ef712adcfa4aac83be38c202ad5d6f24411000091f35f218a22fcbb016000543386426040516107649493929190610a93565b60405180910390a150505050565b600081519050919050565b600082825260208201905092915050565b6000819050602082019050919050565b6000819050919050565b6107b18161079e565b82525050565b600073ffffffffffffffffffffffffffffffffffffffff82169050919050565b60006107e2826107b7565b9050919050565b6107f2816107d7565b82525050565b600081519050919050565b600082825260208201905092915050565b60005b83811015610832578082015181840152602081019050610817565b60008484015250505050565b6000601f19601f8301169050919050565b600061085a826107f8565b6108648185610803565b9350610874818560208601610814565b61087d8161083e565b840191505092915050565b60006080830160008301516108a060008601826107a8565b5060208301516108b360208601826107e9565b50604083015184820360408601526108cb828261084f565b91505060608301516108e060608601826107a8565b508091505092915050565b60006108f78383610888565b905092915050565b6000602082019050919050565b600061091782610772565b610921818561077d565b9350836020820285016109338561078e565b8060005b8581101561096f578484038952815161095085826108eb565b945061095b836108ff565b925060208a01995050600181019050610937565b50829750879550505050505092915050565b6000602082019050818103600083015261099b818461090c565b905092915050565b6109ac8161079e565b82525050565b60006020820190506109c760008301846109a3565b92915050565b6000604051905090565b600080fd5b600080fd5b6109ea8161079e565b81146109f557600080fd5b50565b600081359050610a07816109e1565b92915050565b600060208284031215610a2357610a226109d7565b5b6000610a31848285016109f8565b91505092915050565b610a43816107d7565b82525050565b600082825260208201905092915050565b6000610a65826107f8565b610a6f8185610a49565b9350610a7f818560208601610814565b610a888161083e565b840191505092915050565b6000608082019050610aa860008301876109a3565b610ab56020830186610a3a565b8181036040830152610ac78185610a5a565b9050610ad660608301846109a3565b95945050505050565b6000610aea826107b7565b9050919050565b610afa81610adf565b82525050565b6000602082019050610b156000830184610af1565b92915050565b600080fd5b600080fd5b7f4e487b7100000000000000000000000000000000000000000000000000000000600052604160045260246000fd5b610b5d8261083e565b810181811067ffffffffffffffff82111715610b7c57610b7b610b25565b5b80604052505050565b6000610b8f6109cd565b9050610b9b8282610b54565b919050565b600067ffffffffffffffff821115610bbb57610bba610b25565b5b610bc48261083e565b9050602081019050919050565b82818337600083830152505050565b6000610bf3610bee84610ba0565b610b85565b905082815260208101848484011115610c0f57610c0e610b20565b5b610c1a848285610bd1565b509392505050565b600082601f830112610c3757610c36610b1b565b5b8135610c47848260208601610be0565b91505092915050565b600060208284031215610c6657610c656109d7565b5b600082013567ffffffffffffffff811115610c8457610c836109dc565b5b610c9084828501610c22565b91505092915050565b7f4e487b7100000000000000000000000000000000000000000000000000000000600052602260045260246000fd5b60006002820490506001821680610ce057607f821691505b602082108103610cf357610cf2610c99565b5b50919050565b7fe5bf85e9a1bbe698afe59088e7baa6e68980e69c89e880850000000000000000600082015250565b6000610d2f601883610a49565b9150610d3a82610cf9565b602082019050919050565b60006020820190508181036000830152610d5e81610d22565b9050919050565b7f4e487b7100000000000000000000000000000000000000000000000000000000600052601160045260246000fd5b6000610d9f8261079e565b9150610daa8361079e565b9250828201905080821115610dc257610dc1610d65565b5b92915050565b60008190508160005260206000209050919050565b60006020601f8301049050919050565b600082821b905092915050565b600060088302610e2a7fffffffffffffffffffffffffffffffffffffffffffffffffffffffffffffffff82610ded565b610e348683610ded565b95508019841693508086168417925050509392505050565b6000819050919050565b6000610e71610e6c610e678461079e565b610e4c565b61079e565b9050919050565b6000819050919050565b610e8b83610e56565b610e9f610e9782610e78565b848454610dfa565b825550505050565b600090565b610eb4610ea7565b610ebf818484610e82565b505050565b5b81811015610ee357610ed8600082610eac565b600181019050610ec5565b5050565b601f821115610f2857610ef981610dc8565b610f0284610ddd565b81016020851015610f11578190505b610f25610f1d85610ddd565b830182610ec4565b50505b505050565b600082821c905092915050565b6000610f4b60001984600802610f2d565b1980831691505092915050565b6000610f648383610f3a565b9150826002028217905092915050565b610f7d826107f8565b67ffffffffffffffff811115610f9657610f95610b25565b5b610fa08254610cc8565b610fab828285610ee7565b600060209050601f831160018114610fde5760008415610fcc578287015190505b610fd68582610f58565b86555061103e565b601f198416610fec86610dc8565b60005b8281101561101457848901518255600182019150602085019450602081019050610fef565b86831015611031578489015161102d601f891682610f3a565b8355505b6001600288020188555050505b505050505050565b600060608201905061105b60008301866109a3565b818103602083015261106d8185610a5a565b905061107c60408301846109a3565b949350505050565b7fe4bd99e9a29de4b88de8b6b30000000000000000000000000000000000000000600082015250565b60006110ba600c83610a49565b91506110c582611084565b602082019050919050565b600060208201905081810360008301526110e9816110ad565b9050919050565b600081905092915050565b50565b600061110b6000836110f0565b9150611116826110fb565b600082019050919050565b600061112c826110fe565b9150819050919050565b7fe59091e59088e7baa6e6b187e6acbee5a4b1e8b4a50000000000000000000000600082015250565b600061116c601583610a49565b915061117782611136565b602082019050919050565b6000602082019050818103600083015261119b8161115f565b905091905056fea2646970667358221220c56e6d2524455163df27cb19ba814459a4e25673c4d86c694f94a1f559e2748464736f6c63430008180033",
  "linkReferences": {},
  "deployedLinkReferences": {}
}